{
  "_format": "hh-sol-artifact-1",
  "contractName": "Marketplace",
  "sourceName": "contracts/Marketplace.sol",
  "abi": [
    {
      "inputs": [],
      "stateMutability": "nonpayable",
      "type": "constructor"
    },
    {
      "anonymous": false,
      "inputs": [
        {
          "indexed": false,
          "internalType": "uint256",
          "name": "itemId",
          "type": "uint256"
        },
        {
          "indexed": false,
          "internalType": "address",
          "name": "nftContract",
          "type": "address"
        },
        {
          "indexed": false,
          "internalType": "uint256",
          "name": "tokenId",
          "type": "uint256"
        },
        {
          "indexed": false,
          "internalType": "address",
          "name": "seller",
          "type": "address"
        },
        {
          "indexed": false,
          "internalType": "uint256",
          "name": "price",
          "type": "uint256"
        }
      ],
      "name": "MarketItemListed",
      "type": "event"
    },
    {
      "anonymous": false,
      "inputs": [
        {
          "indexed": false,
          "internalType": "uint256",
          "name": "itemId",
          "type": "uint256"
        },
        {
          "indexed": false,
          "internalType": "address",
          "name": "nftContract",
          "type": "address"
        },
        {
          "indexed": false,
          "internalType": "uint256",
          "name": "tokenId",
          "type": "uint256"
        },
        {
          "indexed": false,
          "internalType": "address",
          "name": "seller",
          "type": "address"
        },
        {
          "indexed": false,
          "internalType": "uint256",
          "name": "price",
          "type": "uint256"
        }
      ],
      "name": "MarketItemUnlisted",
      "type": "event"
    },
    {
      "inputs": [
        {
          "internalType": "uint256",
          "name": "itemId",
          "type": "uint256"
        }
      ],
      "name": "buyNFT",
      "outputs": [],
      "stateMutability": "nonpayable",
      "type": "function"
    },
    {
      "inputs": [],
      "name": "fetchAllNFTs",
      "outputs": [
        {
          "components": [
            {
              "internalType": "uint256",
              "name": "itemId",
              "type": "uint256"
            },
            {
              "internalType": "address",
              "name": "nftContract",
              "type": "address"
            },
            {
              "internalType": "uint256",
              "name": "tokenId",
              "type": "uint256"
            },
            {
              "internalType": "address",
              "name": "seller",
              "type": "address"
            },
            {
              "internalType": "uint256",
              "name": "price",
              "type": "uint256"
            }
          ],
          "internalType": "struct Marketplace.MarketItem[]",
          "name": "",
          "type": "tuple[]"
        }
      ],
      "stateMutability": "view",
      "type": "function"
    },
    {
      "inputs": [
        {
          "internalType": "uint256",
          "name": "itemId",
          "type": "uint256"
        }
      ],
      "name": "fetchIndividualNFT",
      "outputs": [
        {
          "components": [
            {
              "internalType": "uint256",
              "name": "itemId",
              "type": "uint256"
            },
            {
              "internalType": "address",
              "name": "nftContract",
              "type": "address"
            },
            {
              "internalType": "uint256",
              "name": "tokenId",
              "type": "uint256"
            },
            {
              "internalType": "address",
              "name": "seller",
              "type": "address"
            },
            {
              "internalType": "uint256",
              "name": "price",
              "type": "uint256"
            }
          ],
          "internalType": "struct Marketplace.MarketItem",
          "name": "",
          "type": "tuple"
        }
      ],
      "stateMutability": "view",
      "type": "function"
    },
    {
      "inputs": [],
      "name": "fetchMyNFTs",
      "outputs": [
        {
          "components": [
            {
              "internalType": "uint256",
              "name": "itemId",
              "type": "uint256"
            },
            {
              "internalType": "address",
              "name": "nftContract",
              "type": "address"
            },
            {
              "internalType": "uint256",
              "name": "tokenId",
              "type": "uint256"
            },
            {
              "internalType": "address",
              "name": "seller",
              "type": "address"
            },
            {
              "internalType": "uint256",
              "name": "price",
              "type": "uint256"
            }
          ],
          "internalType": "struct Marketplace.MarketItem[]",
          "name": "",
          "type": "tuple[]"
        }
      ],
      "stateMutability": "view",
      "type": "function"
    },
    {
      "inputs": [
        {
          "internalType": "address",
          "name": "nftContract",
          "type": "address"
        },
        {
          "internalType": "uint256",
          "name": "tokenId",
          "type": "uint256"
        },
        {
          "internalType": "uint256",
          "name": "price",
          "type": "uint256"
        }
      ],
      "name": "list",
      "outputs": [],
      "stateMutability": "nonpayable",
      "type": "function"
    },
    {
      "inputs": [
        {
          "internalType": "uint256",
          "name": "itemId",
          "type": "uint256"
        }
      ],
      "name": "unlistItem",
      "outputs": [],
      "stateMutability": "nonpayable",
      "type": "function"
    }
  ],
  "bytecode": "0x608060405234801561001057600080fd5b5060016000819055506000600181905550611f84806100306000396000f3fe608060405234801561001057600080fd5b50600436106100625760003560e01c8063202e3740146100675780633c415853146100855780633f0e317b146100b557806351ed8288146100d35780635a599da8146100ef578063dda342bb1461010b575b600080fd5b61006f610127565b60405161007c9190611978565b60405180910390f35b61009f600480360381019061009a91906115ec565b61045f565b6040516100ac9190611a9c565b60405180910390f35b6100bd6105cb565b6040516100ca9190611978565b60405180910390f35b6100ed60048036038101906100e891906115ec565b6108a1565b005b610109600480360381019061010491906115ec565b610e36565b005b61012560048036038101906101209190611574565b6110bd565b005b60606000600154905060008060005b838110156101d7573373ffffffffffffffffffffffffffffffffffffffff16600260006001846101669190611b7a565b815260200190815260200160002060030160009054906101000a900473ffffffffffffffffffffffffffffffffffffffff1673ffffffffffffffffffffffffffffffffffffffff1614156101c4576001836101c19190611b7a565b92505b80806101cf90611d0c565b915050610136565b5060008267ffffffffffffffff81111561021a577f4e487b7100000000000000000000000000000000000000000000000000000000600052604160045260246000fd5b60405190808252806020026020018201604052801561025357816020015b6102406114c5565b8152602001906001900390816102385790505b50905060005b84811015610454573373ffffffffffffffffffffffffffffffffffffffff16600260006001846102899190611b7a565b815260200190815260200160002060030160009054906101000a900473ffffffffffffffffffffffffffffffffffffffff1673ffffffffffffffffffffffffffffffffffffffff161415610441576000600260006001846102ea9190611b7a565b81526020019081526020016000206000015490506000600260008381526020019081526020016000209050806040518060a0016040529081600082015481526020016001820160009054906101000a900473ffffffffffffffffffffffffffffffffffffffff1673ffffffffffffffffffffffffffffffffffffffff1673ffffffffffffffffffffffffffffffffffffffff168152602001600282015481526020016003820160009054906101000a900473ffffffffffffffffffffffffffffffffffffffff1673ffffffffffffffffffffffffffffffffffffffff1673ffffffffffffffffffffffffffffffffffffffff168152602001600482015481525050848681518110610424577f4e487b7100000000000000000000000000000000000000000000000000000000600052603260045260246000fd5b602002602001018190525060018561043c9190611b7a565b945050505b808061044c90611d0c565b915050610259565b508094505050505090565b6104676114c5565b600154821115801561049d5750600115156003600084815260200190815260200160002060009054906101000a900460ff161515145b6104dc576040517f08c379a00000000000000000000000000000000000000000000000000000000081526004016104d390611a7c565b60405180910390fd5b600260008381526020019081526020016000206040518060a0016040529081600082015481526020016001820160009054906101000a900473ffffffffffffffffffffffffffffffffffffffff1673ffffffffffffffffffffffffffffffffffffffff1673ffffffffffffffffffffffffffffffffffffffff168152602001600282015481526020016003820160009054906101000a900473ffffffffffffffffffffffffffffffffffffffff1673ffffffffffffffffffffffffffffffffffffffff1673ffffffffffffffffffffffffffffffffffffffff1681526020016004820154815250509050919050565b606060008061060e6040518060400160405280600c81526020017f746f74616c206974656d732e000000000000000000000000000000000000000081525061136a565b61061782611403565b6000600190505b600154811161067657600115156003600083815260200190815260200160002060009054906101000a900460ff161515141561066357828061065f90611d0c565b9350505b808061066e90611d0c565b91505061061e565b5060008267ffffffffffffffff8111156106b9577f4e487b7100000000000000000000000000000000000000000000000000000000600052604160045260246000fd5b6040519080825280602002602001820160405280156106f257816020015b6106df6114c5565b8152602001906001900390816106d75790505b5090506000600190505b600154811161089757600115156003600083815260200190815260200160002060009054906101000a900460ff16151514156108845760026000600260008481526020019081526020016000206000015481526020019081526020016000206040518060a0016040529081600082015481526020016001820160009054906101000a900473ffffffffffffffffffffffffffffffffffffffff1673ffffffffffffffffffffffffffffffffffffffff1673ffffffffffffffffffffffffffffffffffffffff168152602001600282015481526020016003820160009054906101000a900473ffffffffffffffffffffffffffffffffffffffff1673ffffffffffffffffffffffffffffffffffffffff1673ffffffffffffffffffffffffffffffffffffffff168152602001600482015481525050828481518110610869577f4e487b7100000000000000000000000000000000000000000000000000000000600052603260045260246000fd5b60200260200101819052506001836108819190611b7a565b92505b808061088f90611d0c565b9150506106fc565b5080935050505090565b600260005414156108e7576040517f08c379a00000000000000000000000000000000000000000000000000000000081526004016108de90611a5c565b60405180910390fd5b60026000819055506002600082815260200190815260200160002060030160009054906101000a900473ffffffffffffffffffffffffffffffffffffffff1673ffffffffffffffffffffffffffffffffffffffff163373ffffffffffffffffffffffffffffffffffffffff161415610994576040517f08c379a000000000000000000000000000000000000000000000000000000000815260040161098b90611a1c565b60405180910390fd5b60006002600083815260200190815260200160002060040154905060006002600084815260200190815260200160002060020154905060006002600085815260200190815260200160002060010160009054906101000a900473ffffffffffffffffffffffffffffffffffffffff1690508273a8590470d7e7cf0a1e860c2d30fa299ae6bd864f73ffffffffffffffffffffffffffffffffffffffff166370a08231336040518263ffffffff1660e01b8152600401610a5391906118fd565b60206040518083038186803b158015610a6b57600080fd5b505afa158015610a7f573d6000803e3d6000fd5b505050506040513d601f19601f82011682018060405250810190610aa39190611615565b1015610ae4576040517f08c379a0000000000000000000000000000000000000000000000000000000008152600401610adb906119fc565b60405180910390fd5b600073a8590470d7e7cf0a1e860c2d30fa299ae6bd864f73ffffffffffffffffffffffffffffffffffffffff1663dd62ed3e33306040518363ffffffff1660e01b8152600401610b35929190611918565b60206040518083038186803b158015610b4d57600080fd5b505afa158015610b61573d6000803e3d6000fd5b505050506040513d601f19601f82011682018060405250810190610b859190611615565b905083811015610bca576040517f08c379a0000000000000000000000000000000000000000000000000000000008152600401610bc1906119dc565b60405180910390fd5b73a8590470d7e7cf0a1e860c2d30fa299ae6bd864f73ffffffffffffffffffffffffffffffffffffffff166323b872dd336002600089815260200190815260200160002060030160009054906101000a900473ffffffffffffffffffffffffffffffffffffffff166064605f89610c419190611c01565b610c4b9190611bd0565b6040518463ffffffff1660e01b8152600401610c6993929190611941565b602060405180830381600087803b158015610c8357600080fd5b505af1158015610c97573d6000803e3d6000fd5b505050506040513d601f19601f82011682018060405250810190610cbb91906115c3565b5073a8590470d7e7cf0a1e860c2d30fa299ae6bd864f73ffffffffffffffffffffffffffffffffffffffff166323b872dd337377d2538297dc7a67c39b77bdbad7c5267e0a156c6064600589610d119190611c01565b610d1b9190611bd0565b6040518463ffffffff1660e01b8152600401610d3993929190611941565b602060405180830381600087803b158015610d5357600080fd5b505af1158015610d67573d6000803e3d6000fd5b505050506040513d601f19601f82011682018060405250810190610d8b91906115c3565b508173ffffffffffffffffffffffffffffffffffffffff166323b872dd3033866040518463ffffffff1660e01b8152600401610dc993929190611941565b600060405180830381600087803b158015610de357600080fd5b505af1158015610df7573d6000803e3d6000fd5b5050505060006003600087815260200190815260200160002060006101000a81548160ff02191690831515021790555050505050600160008190555050565b60026000541415610e7c576040517f08c379a0000000000000000000000000000000000000000000000000000000008152600401610e7390611a5c565b60405180910390fd5b60026000819055503373ffffffffffffffffffffffffffffffffffffffff166002600083815260200190815260200160002060030160009054906101000a900473ffffffffffffffffffffffffffffffffffffffff1673ffffffffffffffffffffffffffffffffffffffff1614610f28576040517f08c379a0000000000000000000000000000000000000000000000000000000008152600401610f1f90611a3c565b60405180910390fd5b60006002600083815260200190815260200160002060030160009054906101000a900473ffffffffffffffffffffffffffffffffffffffff16905060006002600084815260200190815260200160002060040154905060006002600085815260200190815260200160002060020154905060006002600086815260200190815260200160002060010160009054906101000a900473ffffffffffffffffffffffffffffffffffffffff1690508073ffffffffffffffffffffffffffffffffffffffff166323b872dd3033856040518463ffffffff1660e01b815260040161101193929190611941565b600060405180830381600087803b15801561102b57600080fd5b505af115801561103f573d6000803e3d6000fd5b5050505060006003600087815260200190815260200160002060006101000a81548160ff0219169083151502179055507f9f3894762b209368332867576b30522ac2e82bd45fb5a5f59426812b77191aa285828487876040516110a6959493929190611ad2565b60405180910390a150505050600160008190555050565b60026000541415611103576040517f08c379a00000000000000000000000000000000000000000000000000000000081526004016110fa90611a5c565b60405180910390fd5b60026000819055506000811161114e576040517f08c379a0000000000000000000000000000000000000000000000000000000008152600401611145906119bc565b60405180910390fd5b6001600081548092919061116190611d0c565b9190505550600060015490506040518060a001604052808281526020018573ffffffffffffffffffffffffffffffffffffffff1681526020018481526020013373ffffffffffffffffffffffffffffffffffffffff16815260200183815250600260008381526020019081526020016000206000820151816000015560208201518160010160006101000a81548173ffffffffffffffffffffffffffffffffffffffff021916908373ffffffffffffffffffffffffffffffffffffffff1602179055506040820151816002015560608201518160030160006101000a81548173ffffffffffffffffffffffffffffffffffffffff021916908373ffffffffffffffffffffffffffffffffffffffff160217905550608082015181600401559050508373ffffffffffffffffffffffffffffffffffffffff166323b872dd3330866040518463ffffffff1660e01b81526004016112bf93929190611941565b600060405180830381600087803b1580156112d957600080fd5b505af11580156112ed573d6000803e3d6000fd5b5050505060016003600083815260200190815260200160002060006101000a81548160ff0219169083151502179055507f15e08890a381784a46f9cf108efd480131e1592a92249471d9c0ff26d2eed6988185853386604051611354959493929190611ad2565b60405180910390a1506001600081905550505050565b6114008160405160240161137e919061199a565b6040516020818303038152906040527f41304fac000000000000000000000000000000000000000000000000000000007bffffffffffffffffffffffffffffffffffffffffffffffffffffffff19166020820180517bffffffffffffffffffffffffffffffffffffffffffffffffffffffff838183161783525050505061149c565b50565b611499816040516024016114179190611ab7565b6040516020818303038152906040527ff5b1bba9000000000000000000000000000000000000000000000000000000007bffffffffffffffffffffffffffffffffffffffffffffffffffffffff19166020820180517bffffffffffffffffffffffffffffffffffffffffffffffffffffffff838183161783525050505061149c565b50565b60008151905060006a636f6e736f6c652e6c6f679050602083016000808483855afa5050505050565b6040518060a0016040528060008152602001600073ffffffffffffffffffffffffffffffffffffffff16815260200160008152602001600073ffffffffffffffffffffffffffffffffffffffff168152602001600081525090565b60008135905061152f81611f09565b92915050565b60008151905061154481611f20565b92915050565b60008135905061155981611f37565b92915050565b60008151905061156e81611f37565b92915050565b60008060006060848603121561158957600080fd5b600061159786828701611520565b93505060206115a88682870161154a565b92505060406115b98682870161154a565b9150509250925092565b6000602082840312156115d557600080fd5b60006115e384828501611535565b91505092915050565b6000602082840312156115fe57600080fd5b600061160c8482850161154a565b91505092915050565b60006020828403121561162757600080fd5b60006116358482850161155f565b91505092915050565b600061164a838361180f565b60a08301905092915050565b61165f81611ca3565b82525050565b61166e81611c5b565b82525050565b61167d81611c5b565b82525050565b600061168e82611b35565b6116988185611b58565b93506116a383611b25565b8060005b838110156116d45781516116bb888261163e565b97506116c683611b4b565b9250506001810190506116a7565b5085935050505092915050565b60006116ec82611b40565b6116f68185611b69565b9350611706818560208601611cd9565b61170f81611db3565b840191505092915050565b6000611727601983611b69565b915061173282611dc4565b602082019050919050565b600061174a601683611b69565b915061175582611ded565b602082019050919050565b600061176d601483611b69565b915061177882611e16565b602082019050919050565b6000611790602883611b69565b915061179b82611e3f565b604082019050919050565b60006117b3601d83611b69565b91506117be82611e8e565b602082019050919050565b60006117d6601f83611b69565b91506117e182611eb7565b602082019050919050565b60006117f9601083611b69565b915061180482611ee0565b602082019050919050565b60a08201600082015161182560008501826118df565b5060208201516118386020850182611665565b50604082015161184b60408501826118df565b50606082015161185e6060850182611665565b50608082015161187160808501826118df565b50505050565b60a08201600082015161188d60008501826118df565b5060208201516118a06020850182611665565b5060408201516118b360408501826118df565b5060608201516118c66060850182611665565b5060808201516118d960808501826118df565b50505050565b6118e881611c99565b82525050565b6118f781611c99565b82525050565b60006020820190506119126000830184611674565b92915050565b600060408201905061192d6000830185611674565b61193a6020830184611674565b9392505050565b60006060820190506119566000830186611674565b6119636020830185611674565b61197060408301846118ee565b949350505050565b600060208201905081810360008301526119928184611683565b905092915050565b600060208201905081810360008301526119b481846116e1565b905092915050565b600060208201905081810360008301526119d58161171a565b9050919050565b600060208201905081810360008301526119f58161173d565b9050919050565b60006020820190508181036000830152611a1581611760565b9050919050565b60006020820190508181036000830152611a3581611783565b9050919050565b60006020820190508181036000830152611a55816117a6565b9050919050565b60006020820190508181036000830152611a75816117c9565b9050919050565b60006020820190508181036000830152611a95816117ec565b9050919050565b600060a082019050611ab16000830184611877565b92915050565b6000602082019050611acc60008301846118ee565b92915050565b600060a082019050611ae760008301886118ee565b611af46020830187611674565b611b0160408301866118ee565b611b0e6060830185611656565b611b1b60808301846118ee565b9695505050505050565b6000819050602082019050919050565b600081519050919050565b600081519050919050565b6000602082019050919050565b600082825260208201905092915050565b600082825260208201905092915050565b6000611b8582611c99565b9150611b9083611c99565b9250827fffffffffffffffffffffffffffffffffffffffffffffffffffffffffffffffff03821115611bc557611bc4611d55565b5b828201905092915050565b6000611bdb82611c99565b9150611be683611c99565b925082611bf657611bf5611d84565b5b828204905092915050565b6000611c0c82611c99565b9150611c1783611c99565b9250817fffffffffffffffffffffffffffffffffffffffffffffffffffffffffffffffff0483118215151615611c5057611c4f611d55565b5b828202905092915050565b6000611c6682611c79565b9050919050565b60008115159050919050565b600073ffffffffffffffffffffffffffffffffffffffff82169050919050565b6000819050919050565b6000611cae82611cb5565b9050919050565b6000611cc082611cc7565b9050919050565b6000611cd282611c79565b9050919050565b60005b83811015611cf7578082015181840152602081019050611cdc565b83811115611d06576000848401525b50505050565b6000611d1782611c99565b91507fffffffffffffffffffffffffffffffffffffffffffffffffffffffffffffffff821415611d4a57611d49611d55565b5b600182019050919050565b7f4e487b7100000000000000000000000000000000000000000000000000000000600052601160045260246000fd5b7f4e487b7100000000000000000000000000000000000000000000000000000000600052601260045260246000fd5b6000601f19601f8301169050919050565b7f5072696365206d757374206265206d6f7265207468616e203000000000000000600082015250565b7f496e73756666696369656e7420616c6c6f77616e636500000000000000000000600082015250565b7f496e73756666696369656e742062616c616e6365000000000000000000000000600082015250565b7f796f752063616e6e6f74206275792074686973206974656d2c2074686973206960008201527f7320796f75722773000000000000000000000000000000000000000000000000602082015250565b7f43616e6e6f7420756e6c6973742c206e6f7420746865206f776e65722e000000600082015250565b7f5265656e7472616e637947756172643a207265656e7472616e742063616c6c00600082015250565b7f496e646578206e6f7420666f756e642e00000000000000000000000000000000600082015250565b611f1281611c5b565b8114611f1d57600080fd5b50565b611f2981611c6d565b8114611f3457600080fd5b50565b611f4081611c99565b8114611f4b57600080fd5b5056fea264697066735822122066cc67e5c2790b675a59cfc93bc675bd76a46aee6be4bde23db9c29941ed709b64736f6c63430008040033",
  "linkReferences": {},
  "deployedLinkReferences": {}
}